{
  "contractName": "EthBay",
  "abi": [
    {
      "anonymous": false,
      "inputs": [
        {
          "indexed": true,
          "internalType": "address",
          "name": "_seller",
          "type": "address"
        },
        {
          "indexed": false,
          "internalType": "string",
          "name": "_name",
          "type": "string"
        },
        {
          "indexed": false,
          "internalType": "uint256",
          "name": "_price",
          "type": "uint256"
        }
      ],
      "name": "LogListAsset",
      "type": "event"
    },
    {
      "anonymous": false,
      "inputs": [
        {
          "indexed": true,
          "internalType": "address",
          "name": "_seller",
          "type": "address"
        },
        {
          "indexed": true,
          "internalType": "address",
          "name": "_buyer",
          "type": "address"
        },
        {
          "indexed": false,
          "internalType": "string",
          "name": "_name",
          "type": "string"
        },
        {
          "indexed": false,
          "internalType": "uint256",
          "name": "_price",
          "type": "uint256"
        }
      ],
      "name": "LogPurchaseAsset",
      "type": "event"
    },
    {
      "constant": false,
      "inputs": [
        {
          "internalType": "string",
          "name": "_name",
          "type": "string"
        },
        {
          "internalType": "string",
          "name": "_imageurl",
          "type": "string"
        },
        {
          "internalType": "string",
          "name": "_description",
          "type": "string"
        },
        {
          "internalType": "uint256",
          "name": "_price",
          "type": "uint256"
        },
        {
          "internalType": "uint256",
          "name": "_stock",
          "type": "uint256"
        }
      ],
      "name": "listAsset",
      "outputs": [],
      "payable": false,
      "stateMutability": "nonpayable",
      "type": "function"
    },
    {
      "constant": false,
      "inputs": [
        {
          "internalType": "address",
          "name": "_assetaddress",
          "type": "address"
        }
      ],
      "name": "removeAsset",
      "outputs": [],
      "payable": false,
      "stateMutability": "nonpayable",
      "type": "function"
    },
    {
      "constant": false,
      "inputs": [
        {
          "internalType": "address",
          "name": "_assetaddress",
          "type": "address"
        },
        {
          "internalType": "string",
          "name": "_name",
          "type": "string"
        },
        {
          "internalType": "string",
          "name": "_imageurl",
          "type": "string"
        },
        {
          "internalType": "string",
          "name": "_description",
          "type": "string"
        },
        {
          "internalType": "uint256",
          "name": "_price",
          "type": "uint256"
        },
        {
          "internalType": "uint256",
          "name": "_stock",
          "type": "uint256"
        }
      ],
      "name": "editAsset",
      "outputs": [],
      "payable": false,
      "stateMutability": "nonpayable",
      "type": "function"
    },
    {
      "constant": true,
      "inputs": [
        {
          "internalType": "uint256",
          "name": "_index",
          "type": "uint256"
        }
      ],
      "name": "viewListing",
      "outputs": [
        {
          "internalType": "address",
          "name": "",
          "type": "address"
        },
        {
          "internalType": "address",
          "name": "",
          "type": "address"
        },
        {
          "internalType": "string",
          "name": "",
          "type": "string"
        },
        {
          "internalType": "string",
          "name": "",
          "type": "string"
        },
        {
          "internalType": "string",
          "name": "",
          "type": "string"
        },
        {
          "internalType": "uint256",
          "name": "",
          "type": "uint256"
        },
        {
          "internalType": "uint256",
          "name": "",
          "type": "uint256"
        }
      ],
      "payable": false,
      "stateMutability": "view",
      "type": "function"
    },
    {
      "constant": false,
      "inputs": [
        {
          "internalType": "address",
          "name": "_assetaddress",
          "type": "address"
        }
      ],
      "name": "purchaseAsset",
      "outputs": [
        {
          "internalType": "string",
          "name": "",
          "type": "string"
        }
      ],
      "payable": true,
      "stateMutability": "payable",
      "type": "function"
    },
    {
      "constant": true,
      "inputs": [],
      "name": "loadAllAssets",
      "outputs": [
        {
          "internalType": "address[]",
          "name": "",
          "type": "address[]"
        }
      ],
      "payable": false,
      "stateMutability": "view",
      "type": "function"
    },
    {
      "constant": true,
      "inputs": [],
      "name": "loadMyAssets",
      "outputs": [
        {
          "internalType": "address[]",
          "name": "",
          "type": "address[]"
        }
      ],
      "payable": false,
      "stateMutability": "view",
      "type": "function"
    }
  ],
  "bytecode": "0x60806040526000805534801561001457600080fd5b506114d3806100246000396000f3fe6080604052600436106100705760003560e01c806378971b7c1161004e57806378971b7c146102cf5780639d6f4d0c1461036a578063c3e5f35e1461053a578063dac901a1146106e857610070565b806304aa4867146100755780634a5e42b1146100da5780634f8a02151461010f575b600080fd5b34801561008157600080fd5b5061008a6106fd565b60408051602080825283518183015283519192839290830191858101910280838360005b838110156100c65781810151838201526020016100ae565b505050509050019250505060405180910390f35b3480156100e657600080fd5b5061010d600480360360208110156100fd57600080fd5b50356001600160a01b0316610769565b005b34801561011b57600080fd5b5061010d600480360360a081101561013257600080fd5b810190602081018135600160201b81111561014c57600080fd5b82018360208201111561015e57600080fd5b803590602001918460018302840111600160201b8311171561017f57600080fd5b91908080601f0160208091040260200160405190810160405280939291908181526020018383808284376000920191909152509295949360208101935035915050600160201b8111156101d157600080fd5b8201836020820111156101e357600080fd5b803590602001918460018302840111600160201b8311171561020457600080fd5b91908080601f0160208091040260200160405190810160405280939291908181526020018383808284376000920191909152509295949360208101935035915050600160201b81111561025657600080fd5b82018360208201111561026857600080fd5b803590602001918460018302840111600160201b8311171561028957600080fd5b91908080601f01602080910402602001604051908101604052809392919081815260200183838082843760009201919091525092955050823593505050602001356109fb565b6102f5600480360360208110156102e557600080fd5b50356001600160a01b0316610c1b565b6040805160208082528351818301528351919283929083019185019080838360005b8381101561032f578181015183820152602001610317565b50505050905090810190601f16801561035c5780820380516001836020036101000a031916815260200191505b509250505060405180910390f35b34801561037657600080fd5b5061010d600480360360c081101561038d57600080fd5b6001600160a01b038235169190810190604081016020820135600160201b8111156103b757600080fd5b8201836020820111156103c957600080fd5b803590602001918460018302840111600160201b831117156103ea57600080fd5b91908080601f0160208091040260200160405190810160405280939291908181526020018383808284376000920191909152509295949360208101935035915050600160201b81111561043c57600080fd5b82018360208201111561044e57600080fd5b803590602001918460018302840111600160201b8311171561046f57600080fd5b91908080601f0160208091040260200160405190810160405280939291908181526020018383808284376000920191909152509295949360208101935035915050600160201b8111156104c157600080fd5b8201836020820111156104d357600080fd5b803590602001918460018302840111600160201b831117156104f457600080fd5b91908080601f0160208091040260200160405190810160405280939291908181526020018383808284376000920191909152509295505082359350505060200135610f72565b34801561054657600080fd5b506105646004803603602081101561055d57600080fd5b5035610f90565b60405180886001600160a01b03166001600160a01b03168152602001876001600160a01b03166001600160a01b03168152602001806020018060200180602001868152602001858152602001848103845289818151815260200191508051906020019080838360005b838110156105e55781810151838201526020016105cd565b50505050905090810190601f1680156106125780820380516001836020036101000a031916815260200191505b5084810383528851815288516020918201918a019080838360005b8381101561064557818101518382015260200161062d565b50505050905090810190601f1680156106725780820380516001836020036101000a031916815260200191505b50848103825287518152875160209182019189019080838360005b838110156106a557818101518382015260200161068d565b50505050905090810190601f1680156106d25780820380516001836020036101000a031916815260200191505b509a505050505050505050505060405180910390f35b3480156106f457600080fd5b5061008a6112b4565b3360009081526002602090815260409182902080548351818402810184019094528084526060939283018282801561075e57602002820191906000526020600020905b81546001600160a01b03168152600190910190602001808311610740575b505050505090505b90565b6001600160a01b038181166000908152600160205260409020600601541633146107c45760405162461bcd60e51b81526004018080602001828103825260388152602001806114676038913960400191505060405180910390fd5b6000805b60035481101561081457826001600160a01b0316600382815481106107e957fe5b6000918252602090912001546001600160a01b0316141561080c57809150610814565b6001016107c8565b506000805b336000908152600260205260409020548110156108825733600090815260026020526040902080546001600160a01b03861691908390811061085757fe5b6000918252602090912001546001600160a01b0316141561087a57809150610882565b600101610819565b5060038054600019810190811061089557fe5b600091825260209091200154600380546001600160a01b0390921691849081106108bb57fe5b600091825260209091200180546001600160a01b0319166001600160a01b03929092169190911790556003805460001981019081106108f657fe5b600091825260209091200180546001600160a01b03191690556003805490610922906000198301611314565b503360009081526002602052604090208054600019810190811061094257fe5b60009182526020808320909101543383526002909152604090912080546001600160a01b03909216918390811061097557fe5b600091825260208083209190910180546001600160a01b0319166001600160a01b039490941693909317909255338152600290915260409020805460001981019081106109be57fe5b6000918252602080832090910180546001600160a01b031916905533825260029052604090208054906109f5906000198301611314565b50505050565b60008111610a0857600080fd5b600080546001908101808355600380548084019091557fc2575a0e9e593c00f959f8c92f12db2869c3395a3b0502d05e2516446f71f85b0180546001600160a01b0319166001600160a01b039283161790556040805160e08101825289815260208082018a9052818301899052606082018590526080820188905260a082018790523360c0830152855490931685529282529092208151805192939192610ab2928492019061133d565b506020828101518051610acb926001850192019061133d565b5060408201518051610ae791600284019160209091019061133d565b5060608281015160038301805460ff19169115159190911790556080830151600483015560a0830151600583015560c090920151600690910180546001600160a01b03199081166001600160a01b039384161790915533600081815260026020908152604080832083548154600181018355918552838520909101805490961696169590951790935583518084018890528481528a5194810194909452895191947f538ae47a1c93f9d025694e99acb58c29161a3cd82ebb39721ba64c2954132d06948b9489949193849384019291870191908190849084905b83811015610bd9578181015183820152602001610bc1565b50505050905090810190601f168015610c065780820380516001836020036101000a031916815260200191505b50935050505060405180910390a25050505050565b60606001600160a01b038216610c78576040805162461bcd60e51b815260206004820152601e60248201527f546869732070726f64756374206973206e6f7420617661696c61626c65210000604482015290519081900360640190fd5b6001600160a01b038216600090815260016020526040902060050154610ccf5760405162461bcd60e51b81526004018080602001828103825260248152602001806114436024913960400191505060405180910390fd5b6001600160a01b03821660009081526001602081905260409091206003015460ff16151514610d45576040805162461bcd60e51b815260206004820152601c60248201527f546869732070726f6475637420697320756e617661696c61626c652e00000000604482015290519081900360640190fd5b6001600160a01b0382811660009081526001602052604090206006015416331415610da15760405162461bcd60e51b815260040180806020018281038252602581526020018061141e6025913960400191505060405180910390fd5b6001600160a01b0382166000908152600160205260409020600401543414610e03576040805162461bcd60e51b815260206004820152601060248201526f496e636f72726563742070726963652160801b604482015290519081900360640190fd5b6001600160a01b038083166000908152600160205260408082206006015490519216913480156108fc0292909190818181858888f19350505050158015610e4e573d6000803e3d6000fd5b506001600160a01b0382166000818152600160208181526040928390208351349281018390528481528154600294811615610100026000190116939093049383018490523394937f5ef375089d5c765027ad841545b17f1696831c60344e8dd2f2a4653768c0428593919291908190606082019085908015610f115780601f10610ee657610100808354040283529160200191610f11565b820191906000526020600020905b815481529060010190602001808311610ef457829003601f168201915b5050935050505060405180910390a36001600160a01b038216600090815260016020526040902060050180546000190190819055610f6d576001600160a01b0382166000908152600160205260409020600301805460ff191690555b919050565b610f7b86610769565b610f8885858585856109fb565b505050505050565b600080606080606060008060006001600160a01b031660038981548110610fb357fe5b6000918252602090912001546001600160a01b0316141561101b576040805162461bcd60e51b815260206004820152601e60248201527f546869732070726f64756374206973206e6f7420617661696c61626c65210000604482015290519081900360640190fd5b6110236113bb565b6001600060038b8154811061103457fe5b6000918252602080832091909101546001600160a01b031683528281019390935260409182019020815181546002610100600183161581026000190190921604601f81018690049095028201810190935260e0810184815290939192849284918401828280156110e55780601f106110ba576101008083540402835291602001916110e5565b820191906000526020600020905b8154815290600101906020018083116110c857829003601f168201915b50505050508152602001600182018054600181600116156101000203166002900480601f0160208091040260200160405190810160405280929190818152602001828054600181600116156101000203166002900480156111875780601f1061115c57610100808354040283529160200191611187565b820191906000526020600020905b81548152906001019060200180831161116a57829003601f168201915b5050509183525050600282810180546040805160206001841615610100026000190190931694909404601f810183900483028501830190915280845293810193908301828280156112195780601f106111ee57610100808354040283529160200191611219565b820191906000526020600020905b8154815290600101906020018083116111fc57829003601f168201915b505050918352505060038281015460ff161515602083015260048301546040830152600583015460608301526006909201546001600160a01b03166080909101528054919250908a90811061126a57fe5b6000918252602091829020015460c08301518351928401516040850151608086015160a0909601516001600160a01b039094169e929d50939b509950919750919550909350915050565b6060600380548060200260200160405190810160405280929190818152602001828054801561075e576020028201919060005260206000209081546001600160a01b03168152600190910190602001808311610740575050505050905090565b81548183558181111561133857600083815260209020611338918101908301611403565b505050565b828054600181600116156101000203166002900490600052602060002090601f016020900481019282601f1061137e57805160ff19168380011785556113ab565b828001600101855582156113ab579182015b828111156113ab578251825591602001919060010190611390565b506113b7929150611403565b5090565b6040518060e00160405280606081526020016060815260200160608152602001600015158152602001600081526020016000815260200160006001600160a01b031681525090565b61076691905b808211156113b7576000815560010161140956fe596f752063616e6e6f7420707572636861736520796f7572206f776e206c697374696e672e546869732070726f6475637420686173206e6f2073746f636b20617661696c61626c652e596f752063616e6e6f742065646974207468697320617373657420617320697420646f6573206e6f742062656c6f6e6720746f20796f752ea265627a7a723158209be0cb6a608a5660736e15aa9a82b712532c1f1b9d376541b7aca25827557c6a64736f6c63430005100032",
  "source": "pragma solidity ^0.5.16;\r\n\r\ncontract EthBay {\r\n\r\n  uint uniqAssetID = 0;\r\n\r\n  struct Listing {\r\n    string name;\r\n    string imageurl;\r\n    string description;\r\n    bool available;\r\n    uint price;\r\n    uint stock;\r\n    address owner;\r\n  }\r\n\r\n  event LogListAsset(\r\n    address indexed _seller,\r\n    string _name,\r\n    uint256 _price\r\n  );\r\n  event LogPurchaseAsset(\r\n    address indexed _seller,\r\n    address indexed _buyer,\r\n    string _name,\r\n    uint _price\r\n);\r\n\r\n\r\n\r\n  mapping(address => Listing) listings; // Address of Asset from listingIDs which maps to the Listing struct\r\n\r\n  mapping(address => address[]) assetOwners; // Address of asset owner which maps to an array of addresses that give the keys to which listingIDs are owned.\r\n\r\n  address[] listingIDs; // List of all asset addresses/IDs\r\n\r\n  function listAsset(string memory _name, string memory _imageurl, string memory _description, uint _price, uint _stock) public {\r\n    require(_stock > 0); // \"You must have at least one stock available before listing.\"\r\n    uniqAssetID++;\r\n    listingIDs.push(address( uniqAssetID));\r\n    listings[address(uniqAssetID)] = Listing(_name, _imageurl, _description, true, _price, _stock, msg.sender);\r\n    assetOwners[msg.sender].push(address(uniqAssetID));\r\n\r\n    emit LogListAsset(msg.sender, _name, _price);\r\n\r\n}\r\n\r\n  function removeAsset(address _assetaddress) public {\r\n    require(listings[_assetaddress].owner == msg.sender,  \"You cannot edit this asset as it does not belong to you.\" );\r\n    uint assetIndex = 0;\r\n    for (uint i = 0; i < listingIDs.length ; i ++){\r\n      if (listingIDs[i] == _assetaddress){\r\n        assetIndex = i;\r\n        break;\r\n      }\r\n\r\n    }\r\n    uint assetAddressIndex;\r\n    for (uint i = 0; i < assetOwners[msg.sender].length ; i ++){\r\n      if (assetOwners[msg.sender][i] == _assetaddress){\r\n        assetAddressIndex = i;\r\n        break;\r\n      }\r\n\r\n    }\r\n\r\n    listingIDs[assetIndex] = listingIDs[listingIDs.length-1];\r\n    delete listingIDs[listingIDs.length-1];\r\n    listingIDs.length--;\r\n\r\n    assetOwners[msg.sender][assetAddressIndex] = assetOwners[msg.sender][assetOwners[msg.sender].length -1];\r\n    delete assetOwners[msg.sender][assetOwners[msg.sender].length-1];\r\n    assetOwners[msg.sender].length--;\r\n\r\n\r\n  }\r\n\r\n  function editAsset(address _assetaddress, string memory _name, string memory _imageurl, string memory _description, uint _price, uint _stock) public {\r\n    removeAsset(_assetaddress);\r\n    listAsset(_name,_imageurl,_description,_price,_stock);\r\n  }\r\n\r\n\r\n  // Buyer functions - viewing the assets and purchasing the assets\r\n\r\n  function viewListing(uint _index) public view returns (address,address, string memory,string memory,string memory,uint,uint){\r\n    require(listingIDs[_index] != address(0), \"This product is not available!\");\r\n    Listing memory map = listings[listingIDs[_index]];\r\n    return (listingIDs[_index], map.owner,map.name,map.imageurl,map.description, map.price, map.stock) ;\r\n\r\n  }\r\n\r\n\r\n\r\n  function purchaseAsset(address _assetaddress) external payable returns (string memory){\r\n    require(_assetaddress != address(0), \"This product is not available!\");\r\n    require(listings[_assetaddress].stock > 0, \"This product has no stock available.\");\r\n    require(listings[_assetaddress].available == true, \"This product is unavailable.\");\r\n    require(msg.sender != listings[_assetaddress].owner, \"You cannot purchase your own listing.\");\r\n    require(msg.value == listings[_assetaddress].price, \"Incorrect price!\");\r\n    address(uint160(listings[_assetaddress].owner)).transfer(msg.value);\r\n\r\n\r\n\r\n\r\n\r\n    emit LogPurchaseAsset(_assetaddress, msg.sender, listings[_assetaddress].name, msg.value);\r\n\r\n    --listings[_assetaddress].stock;\r\n\r\n    if (listings[_assetaddress].stock == 0){\r\n      listings[_assetaddress].available = false;\r\n    }\r\n\r\n  }\r\n\r\n  function loadAllAssets() public view returns(address[] memory) {\r\n    return listingIDs;\r\n  }\r\n\r\n  function loadMyAssets() public view returns(address[] memory) {\r\n    return(assetOwners[msg.sender]);\r\n  }\r\n\r\n\r\n\r\n\r\n}\r\n",
  "sourcePath": "C:/Users/sepehr/ChainSkills/Training/NewProject/contracts/EthBay.sol",
  "compiler": {
    "name": "solc",
    "version": "0.5.16+commit.9c3226ce.Emscripten.clang"
  },
  "schemaVersion": "3.3.3",
  "updatedAt": "2021-01-12T07:03:46.751Z",
  "networkType": "ethereum",
  "devdoc": {
    "methods": {}
  },
  "userdoc": {
    "methods": {}
  }
}